:020000041000EA
:1000000000B5324B212058609868022188439860DF
:10001000D860186158612E4B002199600221596106
:100020000121F02299502B49196001219960352056
:1000300000F044F80222904214D00621196600F024
:1000400034F8196E01211966002018661A6600F04E
:100050002CF8196E196E196E052000F02FF8012189
:100060000842F9D1002199601B49196000215960AB
:100070001A491B48016001219960EB211966A021F2
:10008000196600F012F800219960164914480160C1
:100090000121996001BC002800D000471248134993
:1000A000086003C880F30888084703B5996A0420EC
:1000B0000142FBD001200142F8D103BD02B5186610
:1000C0001866FFF7F2FF186E186E02BD00000240BE
:1000D000000000180000070000035F00212200005C
:1000E000F4000018222000A00001001008ED00E03C
:1000F00000000000000000000000000074B24E7A12
:1001000000200420F7010010C3010010C5010010F9
:10011000C1010010C1010010C1010010C101001097
:10012000C1010010C1010010C1010010C701001081
:10013000C1010010C1010010C9010010CB01001065
:10014000CD010010CD010010CD010010CD01001037
:10015000CD010010CD010010CD010010CD01001027
:10016000CD010010CD010010CD010010CD01001017
:10017000CD010010CD010010CD010010CD01001007
:10018000CD010010CD010010CD010010CD010010F7
:10019000CD010010CD010010CD010010CD010010E7
:1001A000CD010010CD010010CD010010CD010010D7
:1001B000CD010010CD010010CD010010CD010010C7
:1001C00000BE00BE00BE00BE00BE00BEEFF3058054
:1001D000103800BEF2EB887138A8001058A8001043
:1001E0003402001090A31AE700201F49086006C8D7
:1001F00081F3088810471D48006800282FD10DA4FE
:100200000ECC002902D000F012F8F9E71849194A7B
:10021000002000E001C19142FCD1174988471749ED
:1002200088471749884700BEFDE701C901C29A42C5
:10023000FBD3704758A80010C00000205C140020B9
:10024000F4BB00100000042000000420F4BB0010E8
:10025000001004200010042000000000704709482E
:1002600005F0BCFD0047000008ED00E0000000D0F4
:1002700060140020482C0020D146001035030010E7
:10028000C54700105756000006005250ABB36053EC
:1002900070A5001006005250861C030280A50010B5
:1002A000060052505422A29D88A50010050052500D
:1002B000DE65F468F4BB0010F8B5C04610B5064C16
:1002C0002378002B07D1054B002B02D0044800E017
:1002D00000BF0123237010BD601700200000000044
:1002E000B09B0010044B10B5002B03D00349044809
:1002F00000E000BF10BDC0460000000064170020F1
:10030000B09B001010B50A4C2378042B07D101F0E4
:10031000C3FB102003F006FC2378042BF7D000F079
:100320002BF900F017FD082003F0FCFBECE7C046BA
:100330003C2C002010B506F039FF00F099F800F0D1
:1003400017FC00F00BFA00F037F9032833D0214CEA
:10035000207001F031FC207801F00EFD08F014FD52
:100360002378002B24D0012B2ED0022B29D0042B54
:100370002DD0194806F066FF01200021404207F009
:100380001BFB00F02DFA2378002B02D101F086FD33
:10039000F2E7012B06D0022B07D0042BECD102F0A0
:1003A0003DF8E9E701F040FEE6E701F0EFFEE3E7A4
:1003B00001F068FDDDE700F019FB00F0A3F8007A1A
:1003C000C5E701F0DDFED4E701F028FED1E702F039
:1003D0001BF8CEE73C2C00200503001070B51C4B29
:1003E0001C4C002523600523200063601A4B00216C
:1003F0000222A3600D30257306F082FD174B184AC8
:100400002361184B63612300183343CA43C303CAF3
:1004100003C32000127800211A702D30032206F049
:100420006FFD20003F221049303006F06FFD6F2332
:10043000E5540E4BC822236774232000E2542300A6
:100440000022783002CB4A409842FBD1A26770BDAF
:10045000354B454794170020000123003200CD0F93
:10046000B09B001000080800E09B0010C8FFFF00D0
:1004700030B5204C7C2220001F49C1B006F046FD5B
:100480001E4B22689A4202D16368052B26D0FFF7E3
:10049000A5FF200023000022783002CB4A4083428F
:1004A000FBD1A267FF2184221FA806F029FD7C2230
:1004B0002100684606F02AFDEFF3108472B6802111
:1004C0000F48490109F024FB802269460C4852007C
:1004D00009F00EFB84F3108841B030BD20002300EA
:1004E0000022A56F783002CB4A409842FBD195425A
:1004F000CDD1F1E79417002000F01F10354B454790
:1005000000F01F00004870479417002010B5134CEE
:10051000002220002300C0B0783002CB4A40834242
:10052000FBD1A267FF2184221FA806F0E9FC7C22F0
:100530002100684606F0EAFCEFF3108472B68021D1
:100540000748490109F0E4FA80226946044852004C
:1005500009F0CEFA84F3108840B010BD9417002043
:1005600000F01F00D0231B065B68C3400120184029
:10057000012358407047C04670B586B069460A00EE
:100580000C4BD02631CB31C211CB11C21B780020CD
:10059000137001250022360673680C78E3401D4273
:1005A00002D12B009340184301320131152AF3D1B7
:1005B00006B070BDC89B0010F0B54746CE4680B56A
:1005C000C1B0E9464A46614BD02613CB13C203CBD8
:1005D00003C21B784C46137015236B4498460127C1
:1005E000360625780134280002F014FC3B00AB40AD
:1005F000002201212800B36202F0E0FB4445F0D163
:10060000142003F08FFA72680123D20500D496E01B
:1006100072685208134218D07268120D13423DD00E
:100620001900726852091140134210D07268920981
:10063000134235D07268D209134258D0444B187A0D
:1006400041B0C0BCB946B046F0BD0420F8E7404C0C
:100650000022200023002172783002CB4A408342DE
:10066000FBD1A267FF2184221FA806F049FC7C224F
:100670002100484606F04AFCEFF3108472B6802150
:100680003448490109F044FA802249463148520071
:1006900009F02EFA84F310880020D1E70320CFE779
:1006A0002B4C0022200023002772783002CB4A40D6
:1006B0008342FBD1A267FF2184221FA806F020FC01
:1006C0007C222100484606F021FCEFF3108472B62C
:1006D00080212048490109F01BFA802249461D4823
:1006E000520009F005FA84F310880120A8E70223DC
:1006F000174C0022200023722300783002CB4A409E
:100700009842FBD1A267FF2184221FA806F0F8FBC4
:100710007C222100484606F0F9FBEFF3108472B604
:1007200080210C48490109F0F3F980224946094823
:10073000520009F0DDF984F31088022080E70648B2
:1007400005F04CFB0021030008009847C89B0010EF
:100750009417002000F01F0055420000F8B5CE4667
:10076000474680B506F094FD1F211A2002F00EFBCB
:10077000002200211A2002F021FB00211A2002F0A1
:1007800035FBE022124CD201236880251340114A28
:1007900010261360104B00279946042398466D00DD
:1007A0004B4642461A6023682B42FCD063683220D5
:1007B0001B041B0C0021013EFF1803F0A1F9002EC1
:1007C000EED1064B3F091F80C0BCB946B046F8BD0C
:1007D00000C0044000D0044000E00440F80E0020B7
:1007E00004228021084B49001A60084A13680B4212
:1007F000FCD0074952680888120443001B18120CE9
:100800009B189B100B80704700E0044000C0044020
:10081000F80E0020014B18887047C046F80E0020E3
:10082000F8B5FFF76FFE048A458A230032332700AC
:100830009D4216DD281B06F0C7F9061C0B4B221C37
:100840001B889C4200D21A1C91B22B1C8D4200D9ED
:10085000131C9BB2D81B06F0B7F9311C06F059F9EE
:10086000F8BD32273224024E024DE7E7F80E002091
:1008700000B07945CD0F0000F8B5FFF743FE048ABC
:10088000458A2300323327009D421BDD281B06F0DA
:100890009BF9061C0E4B1A88131CA24200D2231C83
:1008A0009AB2AA4200D92B1C9BB2D81B06F08CF935
:1008B000311C06F02EF9074906F03FF906F0D8F989
:1008C00000B2F8BD32273224034E044DE2E7C046A1
:1008D000F80E002000FF7F4700B07945CD0F0000E3
:1008E000F0B5C64600B5FFF70DFE0400FFF70AFE9F
:1008F000058A468A2B003233A8469E4250DD701B83
:1009000006F062F9071C2F4B1A88131CAA4200D26A
:100910002B1C9AB2B24200D9331C42469BB2981AA1
:1009200006F052F9391C06F0F4F8637A002B04D073
:10093000011CFE20800506F0E6F8234906F0FDF8CC
:10094000224906F0E0F8051CA07A06F038F92049A3
:1009500006F0DFF81F49041C06F024F9002806D130
:10096000FE21201C890506F025F900281ED000264E
:10097000194C301C216806F0E0F8291C06F0C6F876
:10098000206006F043F980231B02984200DB1348E5
:10099000134B984200DA180000B280BCB846F0BD94
:1009A0003223322598460F4F0F4EACE7FE20211C14
:1009B000800506F0A8F8211C061C281C06F0BDF8CE
:1009C000051CD5E7F80E002000FE7F4700FEFF461D
:1009D0000000C8420AD7233C90170020FF7F000088
:1009E0000080FFFF00B07945CD0F0000F0B55746FD
:1009F0004E46DE4645460023E0B5802783B0994643
:100A00009B460093554B3F010026BA4698460197F6
:100A100004228021524B49001A60524A13680B424B
:100A2000FCD05368424612881B045400A4181B0CC7
:100A3000E4184346A4101420A4B21C80FFF792FDD2
:100A40000500002E1CD1231CBC4200D93B1C9FB2C8
:100A5000E123DB009F4201D201239B46002259463D
:100A6000002000F015FF002D05D04B46002B02D1D1
:100A70005B46002B63D10A2003F054F8A946C7E770
:100A8000012E23D0022E44D00A2003F04BF8032E6F
:100A9000F4D13B00C8339BB2534505D380231B01DF
:100AA0000193314B32279A46FFF72CFD5346438280
:100AB000019B07828382FFF729FD00F05BFF03B0F3
:100AC000F0BCBB46B246A946A046F0BD231C544527
:100AD00000D253469BB29A46244B9A4501D9012332
:100AE0000093FE2201200099920500F0D1FE002D16
:100AF000C1D04B46002BBED1009B002BBBD0962013
:100B0000400003F00FF80A2003F00CF80226A94673
:100B10007EE7FC2201210220920500F0B9FE002DA3
:100B200007D04B460A20002B13D102F0FBFF0194A3
:100B3000AFE70A2002F0F6FFA946019468E7962085
:100B4000400002F0EFFF0A2002F0ECFF0126A94668
:100B50005EE702F0E7FFA946019459E7F80E00208E
:100B600000E0044000C00440CD0F000098080000E1
:100B700070B52F4986B02F4806F0A6FB0621050068
:100B8000152002F003F901230021152229480093C2
:100B900006F0FEFB80235B020293EB1CEA011B03C1
:100BA0001343254A052013400393244B0593244BFC
:100BB000049303F0CFFC06F002F8224905F0A9FFE8
:100BC000061C06F055F884B20023002C0ED020003D
:100BD00005F0F5FF011C301C05F095FF8721C905C4
:100BE00005F0ABFF06F044F8C3B21B0224041C431B
:100BF0000294104C2A000021200002AB06F020FCD9
:100C000001222368002113430F485032236006F06D
:100C100077F980221B2052026368190011401342A9
:100C2000FAD1013821610028F6D106B070BDC04666
:100C30005C9C001000002050FFFFFF9F005400202C
:100C4000000006700024F44A1018002000B583B09C
:100C500001911A2807D843001B1804480322C01822
:100C600001A906F053F903B000BDC04610180020DA
:100C700030B50B4C802025000A4A5135400261787E
:100C8000237809041B021943A37819430902536806
:100C90000342FCD103341161A542F0D130BDC046FE
:100CA0001018002000002050014B18707047C046FB
:100CB0003E2C002010B5040003F022F80123610C43
:100CC000234A194049421170210C19404942517080
:100CD000E10B194049429170A10B19404942D17072
:100CE000610B194049421171210B19404942517160
:100CF000E10A194049429171A10A19404942D17152
:100D0000610A194049421172210A1940494251723F
:100D1000E109194049429172A10919404942D17231
:100D2000610919404942117321091940494251731F
:100D3000E108194049429173A10819404942D17311
:100D400061081940234049425B421174537410BD3D
:100D50007C170020F0B55746DE464E464546E0B5C6
:100D6000DB4B07001B7885B0002B00D02EE1FFF78E
:100D7000C9FB037A0500022B00D125E1C37A052BBC
:100D800000D17AE2042B00D1ACE1012B00D1D7E2F3
:100D9000032B00D1AEE3022B00D11EE2290001207B
:100DA000CC4C0022260023008446A846A1463031C0
:100DB0000AE00D784C78887801321D705C7098706C
:100DC00003310333152A1ED038006446D040044254
:100DD000EFD11C7801322001041B2001001B5C783C
:100DE000001218702001041B2001001B9C780012C7
:100DF00058702001041B2001001B00129870033161
:100E00000333152AE0D1B44B45463B404C46BF0561
:100E100000D01DE1002B00D1D4E17222A85C013288
:100E2000A95C0132AD5C3F229446A75C3A01D71B16
:100E30003A01D21B674612120232E2554022944612
:100E4000A75C3A01D71B3A01D21B67461212043243
:100E5000E25541229446A75C3A01D71B3A01D21BC6
:100E6000674612120832E25542229446A75C3A01C4
:100E7000D71B3A01D21B674612120232E2554322B7
:100E80009446A75C3A01D71B3A01D21B674612125F
:100E90000432E25544229446A75C3A01D71B3A013A
:100EA000D21B674612120832E25545229446A75CCF
:100EB0003A01D71B3A01D21B674612120232E255A1
:100EC00046229446A75C3A01D71B3A01D21B6746DB
:100ED00012120432E25547229446A75C3A01D71B0E
:100EE0003A01D21B674612120832E255002B00D09D
:100EF000DBE04821625C13019A1A13019B1A1B1252
:100F0000083363540131625C13019A1A13019B1A6E
:100F10001B12023363540131625C13019A1A1301EC
:100F20009B1A1B12043363540131625C13019A1A39
:100F300013019B1A1B12083363540131625C1301C5
:100F40009A1A13019B1A1B12023363540131625C1B
:100F500013019A1A13019B1A1B12043363540131B3
:100F6000625C13019A1A13019B1A1B120833635413
:100F70000131625C13019A1A13019B1A1B1202338E
:100F800063540131625C13019A1A13019B1A1B12FC
:100F9000043363548020514A5134400271783378CD
:100FA00009041B021943B378194309025368034229
:100FB000FCD103361161B442F0D105B0F0BCBB46A0
:100FC000B246A946A046F0BD037BD8E6414C51226B
:100FD0000021200005F094FF414D03222900A01DAF
:100FE00005F094FF2000E91C0322093005F08EFF74
:100FF0002000A91D03220C3005F088FF29002000E5
:1010000003220931243005F081FF2900200003224A
:101010000C31273005F07AFF2900200003222A3006
:101020000F3105F073FF250080202C4A5135400216
:101030006178237809041B021943A3781943090234
:1010400053680342FCD103341161A542F0D1B4E7E7
:1010500070215A32AA5C91466A5C0131695C924601
:101060008C46002B00D0B1E00F25052119203F222E
:101070004F46A75457460132A75467460132A7543A
:101080004F460132A75457460132A75467460132F2
:10109000A7544F460132A75457460132A75467461A
:1010A0000132A754002B00D123E74823E054013339
:1010B000E1540133E5540133E0540133E154013389
:1010C000E5540133E0540133E1540133E55461E761
:1010D0003E2C00201018002000FC0F0000002050C3
:1010E0007C170020944C631B313B0A2B00D89FE3F4
:1010F0002B6B23606B6B6360AB6BA360EB6BE3608C
:101100002B6C23616B6C6361AB6CA361EB6CE36173
:101110002B6D23626B6D6362AB6DA362EB6DE3625B
:101120002B6E23636B6E6363AB6EA3636E23EA5C0B
:10113000023BEB5AA3873E23E2546F23EF5C01335B
:10114000EE5C0133E85C0133E95C0133EA5C0133B6
:10115000EB5C3F2567550135665501356055013516
:1011600067550135665501356055013567550135BF
:101170006655013560554820215401302254013014
:1011800023540130215401302254013023540130C2
:1011900021544F216254502225008020A354674AD5
:1011A000513540026178237809041B021943A37862
:1011B0001943090253680342FCD103341161A5426B
:1011C000F0D1FAE60F25052119202CE672217422B0
:1011D000685C0131695CAD5C49E72E339A460023B7
:1011E000554CAA4456460195BA461D0002940394F4
:1011F00008E0002323706370A370013503340336C5
:10120000152D4DD053460122EB401A42F1D13378CF
:10121000207899467378B778984681450CD9123072
:1012200005F0D2FC8346484605F0C9FC594608F053
:10123000A7FC05F01DFD2070607880450CD91230A8
:1012400005F0C2FC8146404605F0B9FC494608F06D
:1012500097FC05F00DFD6070A0788742CDD9123063
:1012600005F0B2FC8046380005F0A9FC414608F0C4
:1012700087FC05F0FDFCA070BFE7512200212E483D
:1012800005F03EFE80221B242C4952024B681800B8
:1012900010401342FAD1013C0861002CF6D18CE6D3
:1012A0006F23019D039CEB5C029E9C467023EF5CC8
:1012B0000133E85C0133E95C0133EA5C0133EB5C48
:1012C0003F2598466346635501356755013560559E
:1012D0000135635501356755013560550135635555
:1012E000013567550135605548204346215401308A
:1012F0002254013023540130215401302254013052
:101300002354013021544F21625450228020A35491
:101310000A4A513440027178337809041B02194398
:10132000B3781943090253680342FCD103361161B3
:10133000B442F0D141E6C046101800200000205011
:1013400002F0DEFC002900D1CFE0FA220023920057
:1013500004F0DCFDEE4904F09BFD080005F02FFCD5
:10136000EC4905F0D6FB011C05F0D0FBEA4905F07D
:10137000E4FB05F093FCE94905F0DFFBE84905F0E3
:10138000C5FB30239846E74CA8442700A146A24657
:101390004446A846051C607805F016FC291C05F09B
:1013A000CCFB05F065FCC6B2A07805F00DFC291C4D
:1013B00005F0C3FB05F05CFCC3B29B46207805F04A
:1013C00003FC291C05F0B9FB05F052FC5B46BB7021
:1013D000D54B38707E70033703349F42DBD1AB4668
:1013E0006F234546E85C05F0EFFB594605F0A5FB89
:1013F00005F03EFCC3B254469A467023E85C05F003
:10140000E3FB594605F099FB05F032FCC3B24E46AA
:1014100099467123E85C05F0D7FB594605F08DFB32
:1014200005F026FCC3B298467223E85C05F0CCFBBD
:10143000594605F082FB05F01BFC7323C7B2E85C3C
:1014400005F0C2FB594605F078FB05F011FC74234A
:10145000C2B20192E85C05F0B7FB594605F06DFB9E
:1014600005F006FC3F235146E15449460133E1545F
:1014700041460133E15451460133E15449460133B9
:10148000E15441460133E15451460133E1544946A8
:101490000133E15441460133E154019A0133E754E9
:1014A0000133E254C0B20133E0540133E754013355
:1014B000E2540133E0540133E7540133E254013381
:1014C000E0548020994A51344002717833780904FD
:1014D0001B021943B3781943090253680342FCD134
:1014E00003361161A642F0D167E5FA21890004F0C4
:1014F000CFFC2FE702F004FC002900D193E1FA228F
:101500000023920004F002FD4005030E984601936B
:101510003F23844C9B46250089339946844B260003
:10152000A3440294FF2744469A46A84638002B213C
:10153000204004F0ADFC390085B28306C2B24846B3
:101540005B1B9B005B199B005B199B0021405B1997
:101550005B1859005B185B00DBB21902C91A09124B
:10156000791A4143F81A03021B1A48461B12FB1A48
:10157000434309121B12C9B2DBB2042A00D94EE15F
:1015800055469000285887460022C8233170737052
:10159000B27003360C345E45C8D1FF26019F2B2163
:1015A0001E373740380004F073FC82B28306C1B2A4
:1015B000DC209B1A9B009B189B009B189B009B1890
:1015C000DB195A009B185B00DBB21A02D21AF31A1D
:1015D0001F02FB1A12121B12B21AF31A42434343A0
:1015E00012121B124446029DD2B2DBB2042900D96A
:1015F0003DE1504E880030588746C821C6E71900A3
:10160000C8220023C2E70B00C8220021BEE71A004F
:101610000021C823BAE73F224749A3540132A1520F
:1016200000210232A3540132A1540132DC31A15411
:101630001A000023452022544622FF26A3544723A4
:10164000019FE154B43737402B21380004F020FCCF
:1016500081B28306C2B2DC205B1A9B005B189B0040
:101660005B189B005B18DB1959005B185B00DBB251
:101670001902C91AF31A1F02FB1A09121B12711A56
:10168000F31A4143434309121B12C9B2DBB2042AC5
:1016900000D9DDE0294E90003058874648230022CB
:1016A000E2540133E1544A329333A3520232A1543B
:1016B0000132A3540B0000218F324E2021544F21C0
:1016C000635450238020E254184A51344002697810
:1016D0002B7809041B021943AB781943090253689C
:1016E0000342FCD103351161AC42F0D165E44822DC
:1016F0001149A15200210232A3540132A1540132F6
:10170000DC31A1540132A35400211A00DC23D4E7B8
:10171000C409000000401C45D00F49406666E63E03
:10172000CDCC0C3F101800204F1800200000205096
:10173000209C0010349C001000DCFFFF489C00102F
:10174000482349220020E1549433A3540132A05489
:101750000132A1540132A3520022AEE74821DC201D
:1017600060544A4801316354013160520020023113
:101770006354013160548F319FE748220021A35404
:101780000132A1540132DC31A15440490132A35449
:101790000132A1521900903200238EE700213F232D
:1017A0004120E1540133E2549C332354013021544D
:1017B000433162540131635413009831002239E7F8
:1017C0003F220021A1540132DC31A1542F490132C2
:1017D000A3540132A1520232A35419000022DC2387
:1017E00028E73F234021E2549D3363520231625483
:1017F000013163540021983BE15498331AE7DC200F
:101800003F22A05401324126A3540022A2550136A2
:10181000A0559938235401302254DC320AE70A00DB
:101820000023C821B2E6FA21890004F031FB6BE6FF
:101830002A002700230030323F37167850789178FD
:101840001E7058709970033303329F42F5D174E4CF
:1018500048230022E0520233E1540133E0540133C3
:10186000E2540133E1540A000023DC2125E73F2341
:101870000021E0540133E1540133E2540133E052DA
:101880000233E25411000023DC22D3E600DCFFFF28
:1018900070B5364C05000E0051220021200005F0E5
:1018A0002FFB002D2DD1FF23002E35D03F22A55434
:1018B0000132A3540232A5540132A3540232A5547A
:1018C000013225706370E5702371A571E371657253
:1018D000A37225736373A35425008020244A5135D5
:1018E00040026178237809041B021943A378194345
:1018F000090253680342FCD103341161AC42F0D1B8
:1019000070BD012D0BD0022DE6D13D23FF22E25404
:10191000573B63812385DFE7873BFF35C6E7002E12
:1019200020D17823FF2221216254013163540231F6
:101930006254013163540231625401316354023103
:101940006254013163541D316254013163540231D8
:101950006254013163540231A27762544F22E3771B
:10196000A354B9E7FF230022DDE7C046101800208A
:1019700000002050F8B5032357469A46FF231B0268
:101980004E469946404B454698465023DE469B4678
:10199000E0B53E4F4A46FA6042463A614A46BA616D
:1019A0004246FA614A467A6242464B46BA624A4623
:1019B0003B6043463A6342467B60FF237A634A4674
:1019C0001B04BB607B613B62FB62BB63FA637B64AD
:1019D00042464B463A64BB64FA645B460022FA54C2
:1019E00080223D003E002A4952027078337800047C
:1019F0001B021843B378184300024B681C001440C4
:101A00001342FAD1234B033608619E42EDD1962052
:101A100002F088F85B4680201D4A3C607C60BC6018
:101A2000FC603C617C61BC61FC613C627C62BC62CC
:101A3000FC623C637C63BC63FC633C647C64BC64AC
:101A4000FC64FC54400269782B7809041B0219439A
:101A5000AB781943090253680342FCD10D4B03359F
:101A600011619D42EFD1642002F05CF801235B42DA
:101A70009C46E2445346002B8CD1F0BCBB46B24698
:101A8000A946A046F8BDC046FF0000FF1018002080
:101A9000000020506118002070B502F031F90029D3
:101AA00000D175E0FA220023920004F02FFAFA2107
:101AB000C90004F0EDF9080005F081F8374905F098
:101AC00028F8011C05F022F8354905F036F805F034
:101AD000E5F8FC21890505F030F8FC21890505F0C1
:101AE00015F8304905F029F82F4905F00FF805F0F1
:101AF000BFF8C5B2280005F067F82C4905F01DF8BD
:101B000005F0B6F82A4AC6B21000140013000021EE
:101B10003F3019705D709D7003338342F9D13F23CC
:101B20008020D1540133D6540133D5540133D154DC
:101B30000133D6540133D5540133D1540133D65433
:101B40000133D5540133D1540133D6540133D55424
:101B50000133D1540133D6540133D5540133D15418
:101B60000133D6540133D55451321500114A400285
:101B70006178237809041B021943A37819430902E9
:101B800053680342FCD103341161A542F0D170BD0A
:101B9000FA21890004F07CF989E7C0460000FA4484
:101BA000D00F4940000034430000A041CDCCCC3ED2
:101BB0001018002000002050F0B55746DE464E4673
:101BC0004546E0B5824687B000280ED0012805D0F2
:101BD000022800D1C3E0042800D1B9E0FF2301931B
:101BE000193B9A460023984603E0B42301934B33F4
:101BF0009846022302934346190253464046019DEC
:101C00001A04294354462F060A433A439146524642
:101C10000604504624022B0205942C04039413431B
:101C2000444600061E430643B346240604944F4C24
:101C30004346059A41461343039A26001343049AE8
:101C4000270013435A4662604A46A2605A46226100
:101C50004A4662615A46E2614A4622625A46A26296
:101C60004A46E2625A462360E360A36163622363EB
:101C70006263E3634A465B46A2632364626448236B
:101C80004246E25452460133E254019A0133E2548F
:101C90000133E15451460133E15441460133E254EA
:101CA0000133E15451460133E1540133E2548022BF
:101CB0002F49520278783B7800041B021843BB7806
:101CC000184300024B681D0015401342FAD1294BFE
:101CD000033708619F42EDD1642001F023FF5023B8
:101CE0008020234A25606560A560E5602561656107
:101CF000A561E56125626562A562E56225636563AC
:101D0000A563E56325646564A564E564E554400264
:101D10007178337809041B021943B3781943090217
:101D200053680342FCD1134B033611619E42EFD13D
:101D3000322001F0F7FE029B012B06D107B0F0BC68
:101D4000BB46B246A946A046F0BD012302936FE709
:101D500000230193C8339A463733984649E7002356
:101D60000193FF339A460023984642E7101800205B
:101D70000000205061180020014B18707047C046C9
:101D8000432C0020054B1B78013BDBB2032B03D80F
:101D9000034A9B00985870470248FCE7432C0020F8
:101DA0009C9D00109C9E0010034B1B78012B01D0C2
:101DB000024870470248FCE7432C0020D89E0010E0
:101DC0004C9F0010054B1B78013BDBB2032B03D863
:101DD000034A9B00985870470248FCE7432C0020B8
:101DE0008C9D0010089E001010B51F4B1B78012B16
:101DF00031D0022B23D0042B30D007221B4B0028DC
:101E000021D090422DD28000C458200007F02EFB34
:101E10000100782800D97821002807D00023144A2F
:101E2000E05C0133108002328B42F9D3C0230131D0
:101E3000C9B249009B0019430E48018010BD04221D
:101E40000D4B0028DDD119680222094805F05EF823
:101E5000C1218900F0E70422084BD0E70522084B96
:101E6000CDE70020EAE7C046432C0020100F0020F9
:101E70008A230020882300203C0F00202C0F002004
:101E8000FC0E002010B53F220021034805F038F871
:101E90000120FEF709FF10BD6820002070B500206A
:101EA00006F0A0FD002800D170BD0023434C142093
:101EB000E361FEF757FB05000020FEF753FB002807
:101EC00063D0002D6ED08023A28B9B0013430A2089
:101ED000A383FEF747FB002803D04022A38B1343C4
:101EE000A3830120FEF73EFB002803D1E28B344B95
:101EF0001343E3830B20FEF735FB002804D1802336
:101F0000A28BDB011343A3830220FEF72BFB0028E7
:101F100003D00122A38B1343A3830320FEF722FBEC
:101F2000002803D02022A38B1343A3830420FEF7B1
:101F300019FB002803D01022A38B1343A3830C208A
:101F4000FEF710FB002803D00222A38B1343A383C8
:101F50000D20FEF707FB002803D00122E38B13437B
:101F6000E3830E20FEF7FEFA002803D0A28B144B69
:101F70001343A383FEF780FC3F23208020822200AE
:101F80000121002006F04AFD8EE70A20FEF7EAFA5A
:101F90000028A6D0002DA0D18023A28B9B01134343
:101FA000A3839EE78023E28BDB0113430A20E383B4
:101FB000FEF7D8FA0028EFD193E7C046682000204A
:101FC0000080FFFF0020704710B502AA1288012A86
:101FD00002D91A78102A00D010BD5A78032A14D0DA
:101FE00007D8013A012AF7D8202330210A4AD154D0
:101FF000F2E7042AF0D19878DA7800041B7912020B
:1020000010431843FEF756FEE6E700222021024B5C
:102010009A615A54E0E7C0466820002010B50020BD
:10202000FEF742FE10BDC046F0B5C64600B5002022
:1020300088B006F0D7FC002803D108B080BCB846B1
:10204000F0BD1D220021684604F05AFFFEF75AFA3F
:102050000723183000240600984601270F4D285DFD
:10206000FEF780FA00280ED0325D531EDBB2E62B5D
:1020700009D84346D1081A403B0093406A46525C57
:1020800013436A4653540134152CE8D11D236A4684
:102090000021002006F0C2FCCFE7C046649F00107C
:1020A0007047C0460022014B1A7070473D2C00203B
:1020B0000120704770B5050014000120012905D1E9
:1020C0006023127800201340402B00D070BD63784D
:1020D000012BFBD152B2002AF8DA21002800024A73
:1020E000133306F0F5F8F1E7949F0010F0B54F4672
:1020F000D6464646C0B54B7981460D00FF2B02D12E
:102100008B795D2B06D000273800E0BCBA46B1467B
:10211000A846F0BD0979CF007F1A1937BFB2BA427D
:10212000F1D32C782C190029EED0AE18A642EBD9A9
:10213000002398460E4B9A4605E02378E41888451C
:10214000E2D2A642E0D96378052BF6D121004846B9
:1021500006F030F80028D6D0A378DA09012A01D198
:102160005246137043460133DBB298462979E4E7BF
:102170003D2C002001230370004870477C9F001015
:1021800010B50020FEF790FD10BDC04630B5704C74
:1021900087B02378002B01D107B030BD05F076FB66
:1021A0000028F9D005F07AFB0028F5D1217806F057
:1021B00069F80028F0D101AD14220021280004F0B4
:1021C0009FFE142303206B70FEF7CCF9002803D088
:1021D0000122AB781343AB700520FEF7C3F900284A
:1021E00003D00222AB781343AB700220FEF7BAF99A
:1021F000002803D00422AB781343AB700420FEF711
:10220000B1F9002803D00822AB781343AB700A2041
:10221000FEF7A8F9002803D01022AB781343AB7067
:102220000020FEF79FF9002803D02022AB7813434B
:10223000AB700620FEF796F9002803D04022AB7859
:102240001343AB700720FEF78DF9002804D08023DC
:10225000AA785B421343AB700120FEF783F9002894
:1022600003D00122EB781343EB700B20FEF77AF9D1
:10227000002803D00222EB781343EB701420FEF702
:1022800071F9002803D00422EB781343EB700E2081
:10229000FEF768F9002803D01022EB781343EB70A7
:1022A0000F20FEF75FF900284BD02022EB78134374
:1022B000EB700C20FEF756F9002803D04022EB7893
:1022C0001343EB700D20FEF74DF9002804D0802356
:1022D000EA785B421343EB700920FEF743F90028CC
:1022E00001D0FF232B711320FEF73CF9002801D009
:1022F000FF236B711020FEF735F9002801D0154B34
:10230000AB811120FEF72EF9002801D0124B6B8112
:102310001220FEF727F9002801D00E4B6B81FEF743
:10232000DFFA2178E880002005F05EFF2178142391
:102330002A00002005F080FF2178002005F068FFCA
:102340002AE70820FEF70EF90028AED1B1E7C04613
:102350003D2C0020FF7F00000080FFFFF0B5C64647
:10236000040000B592B00B0017004021244A02A8D7
:1023700003F000FD200002A907F024FA002839D05C
:102380005B2107F013F8031E34D0FA1C9046012598
:102390001C4E01331C0022781300093BDBB2172BC3
:1023A00006D95D2A28D1012012B080BCB846F0BD04
:1023B0003200DA4013002A009A4319D000230A227F
:1023C000200001A9019307F05BFB019B3870002BF3
:1023D000E9D09C42E7D01A78202A03D0092A01D0FC
:1023E0002C2A01D10133F6E70137B845D2D1DAE71B
:1023F0000134D0E70020D7E7002AD4D0DEE7C0467A
:10240000A89F001013008000002210B5024B00208E
:102410001A60FEF749FC10BD64200020F0B5DE46CE
:1024200057464E464546E0B5C94C0020A54406F047
:1024300061F8002822D0002006F05CF800281DD0AA
:10244000012200201EA906F061F8002800D1BFE398
:10245000702202AB9B181B780D2B17D00A2B15D0BE
:10246000BC49BD480A688242E5D8501C0860BB4997
:1024700000208B5406F03EF80028E1D1B84B9D4473
:10248000F0BCBB46B246A946A046F0BDB14B9B4648
:102490001B68002BCFD00022B04DEA542B78202BA4
:1024A00001D0092B01D10135F8E704222800AD49FC
:1024B00007F00AF8002800D106E10A222800AA49FC
:1024C00007F002F8002845D00B222800A74906F0A3
:1024D000FBFF002800D11DE10E222800A44906F0D0
:1024E000F3FF002800D175E30A222800A14906F075
:1024F000EBFF002800D1F4E00D2228009E4906F0F1
:10250000E3FF071E00D18EE30E2228009B4906F050
:10251000DBFF002801D100F008FC062228009849C2
:1025200006F0D2FF002800D067E305F0CBFF0028BB
:1025300007D00E220020934906F05CF8002006F038
:102540001DF8642001F0EEFA00220021002002F0C4
:102550005FF8B5E0FDF7D6FFC027C28A436808924E
:10256000828AFF000792428A80460692028A3900D8
:102570000592027B45460492C27A19350392827A0B
:102580000292427A0192027A1EA800927E4A03F0D9
:10259000F1FB1EAB391A04007C4A181803F0EAFB61
:1025A0002D2224181EAB424492461819784A4346FD
:1025B00091461B7E774E391B4A46009603F0DAFBA4
:1025C0001EAB241818192B780135391B5545F3D14A
:1025D000714A00924A4603F0CDFB1EAB2418391B0A
:1025E00018196E4A03F0C6FB1EAB0519791B581962
:1025F0006B4A03F0BFFB1EAB2D184246581930231F
:102600004446D35C3122A25C791B6F279446322268
:102610004744A25CBA46634F3334B946170062465A
:10262000BC466746009201974A46029603F0A2FB19
:102630001EAB2D185819C023A778DB006278591BF0
:1026400023780334BC465445EBD1534C009202949A
:102650004A46019703F08EFBC0242D18E4001EAB00
:10266000611B4E4A581903F085FB42466F234019FF
:10267000D35C1EAA9446211A74224446A25C60448C
:1026800004927322A25C03927222A25C02927122D3
:10269000A25C01927022A25C0092434A03F06AFBA2
:1026A000002005F00FFF00280AD01EA806F0DEFE6D
:1026B0001EA90200002005F09DFF002005F05EFF2E
:1026C00000235A461360B6E605F0FCFE0028F7D05A
:1026D00006223649002005F08DFF002005F04EFF50
:1026E000EEE7FDF749FF0400FEF794F80500FEF75A
:1026F00097F804F0C9FA2300029003912C4A802134
:1027000000951EA803F036FB002005F0DBFE002834
:10271000D6D0CAE7FDF7F6FE264B40219A46814601
:102720005246254B0B351EA803F024FB28001EA99A
:1027300007F048F8041E49D01EA806F097FE20189E
:102740000378202B01D0092B38D10130F8E7C0469F
:1027500084F9FFFF64200020FE07000064180020B9
:102760007C060000B09F0010C09F00109CA00010CD
:1027700068A100108CA10010CCA1001008A20010CC
:1027800030A2001038A20010CC9F001078A00010DA
:1027900084A00010C49B0010ECA1001060A20010E7
:1027A000A0A200108CA0001064A20010B89F00101E
:1027B00098A10010A89F0010A8A000100A220021D4
:1027C00007F05EF9022801D84B46187252464021A4
:1027D000BE4B1EA803F0CEFA28001EA906F0F2FF99
:1027E000041E12D01EA806F041FE20180378202BEC
:1027F00001D0092B01D10130F8E70A22002107F0AE
:102800003FF9052801D84B46D87252464021B04BBB
:102810001EA803F0AFFA28001EA906F0D3FF041E7D
:1028200012D01EA806F022FE20180378202B01D01B
:10283000092B01D10130F8E70A22002107F020F925
:10284000052801D84B46187352464021A14B1EA8BB
:1028500003F090FA28001EA906F0B4FF041E14D05D
:102860001EA806F003FE20180378202B01D0092BA8
:1028700001D10130F8E70A22002107F001F905280B
:1028800003D84B46C0B2D872187352464021924BBF
:102890001EA803F06FFA28001EA906F093FF041E7D
:1028A00012D01EA806F0E2FD20180378202B01D0DC
:1028B000092B01D10130F8E70A22002107F0E0F8E6
:1028C000431E98414B46587252464021834B1EA8E6
:1028D00003F050FA28001EA906F074FF041E13D05E
:1028E0001EA806F0C3FD20180378202B01D0092B69
:1028F00001D10130F8E70A22002107F0C1F864286D
:1029000000D964204B46987252464021744B1EA851
:1029100003F030FA28001EA906F054FF041E10D060
:102920001EA806F0A3FD20180378202B01D0092B48
:1029300001D10130F8E70A22002107F0A1F84B4647
:10294000188252464021674B1EA803F013FA280054
:102950001EA906F037FF041E10D01EA806F086FD43
:1029600020180378202B01D0092B01D10130F8E782
:102970000A22002107F084F84B4658825246402133
:10298000594B1EA803F0F6F928001EA906F01AFFFD
:10299000041E10D01EA806F069FD20180378202B15
:1029A00001D0092B01D10130F8E70A22002107F0FC
:1029B00067F84B469882524640214C4B1EA803F0C4
:1029C000D9F928001EA906F0FDFE041E10D01EA88D
:1029D00006F04CFD20180378202B01D0092B01D1E3
:1029E0000130F8E70A22002107F04AF84B46D88266
:1029F000402152463E4B1EA803F0BCF928001EA9F8
:102A000006F0E0FE002800D10AE15B2106F0CEFCD2
:102A1000031E00D104E12D224A444F460B920EAA18
:102A2000A84601261500013318371C002278130030
:102A3000093BDBB2172B00D8A2E05D2A00D0EBE007
:102A40002B0045469846402152462A4B1EA803F0CB
:102A500091F928001EA906F0B5FE002856D05B218A
:102A600006F0A4FC002851D06F234B440B930023A5
:102A70009A4643464E46A8461D00013030365B213B
:102A800006F094FC00283ED00130F71C04002378A7
:102A9000202B01D0092B01D10134F8E753460A223B
:102AA000290020000E9306F0EBFF30700E980028EE
:102AB00000D18BE0844200D188E00378202B03D042
:102AC0002C2B01D05D2B17D10130F6E7B4A00010FC
:102AD000C0A00010C8A00010D4A00010E0A00010FA
:102AE000ECA00010F8A0001004A1001014A1001028
:102AF00020A1001028A100100136BE42C6D10B9BB8
:102B00003E00BB42BBD12B0045469846924B414606
:102B10001A8843461A80002370208B7002A9091876
:102B20000A80722102AA52181370280042468B496B
:102B3000FFF714FC002805D04846032241466F30B9
:102B400004F0E4F9280086491EAAFFF707FC0028D4
:102B500005D04846032272301EA904F0D7F9FDF7CC
:102B6000D5FC002005F0AEFC002800D1A8E511221C
:102B70007C49002005F03EFD002005F0FFFC9FE5AC
:102B8000794ADA40130032009A431DD000230A220A
:102B9000290020000E9306F073FF38700E9B002B67
:102BA00000D14DE79C4200D14AE71A78202A03D091
:102BB000092A01D02C2A01D10133F6E70B9A0137FB
:102BC000BA4200D031E73BE701342FE7200096E717
:102BD000FF2345E4FDF702FCFDF798FC002005F01B
:102BE00071FC002800D16BE513226049002005F03C
:102BF00001FD002005F0C2FC62E5002005F062FC4A
:102C0000002800D15CE517225949002005F0F2FCAC
:102C1000002005F0B3FC53E5002A00D110E7B5E72A
:102C20000EAB98460FE74021524B534A1EA803F0C3
:102C3000A1F828001EA90D3006F0C4FD002865D0BB
:102C40005B2106F0B3FB002860D002AA6F239446F4
:102C50006344994600230EAD2E009A46A8460130E3
:102C60005B2106F0A3FB002825D00130F51C0400F1
:102C70002378202B01D0092B01D10134F8E75346EA
:102C80000A2220000DA90D9306F0FAFE30700D986F
:102C9000002839D0844237D00378202B03D02C2B46
:102CA00001D05D2B01D10130F6E70136AE42DED115
:102CB0002E00A945D4D145467024297802A80019D0
:102CC000017071206A7802A909180A707221AB7824
:102CD00002AA52181370F8B21E990335FDF7B6FF19
:102CE00001374D45E8D1FDF7C3FF002005F0EAFBB1
:102CF000002800D1E4E410222049002005F07AFCED
:102D0000002005F03BFCDBE42000D1E7002005F0CB
:102D1000D9FB002800D1D3E416221949002005F080
:102D200069FC002005F02AFCCAE405F0CBFB002872
:102D300007D016220020134905F05CFC002005F0A6
:102D40001DFC642000F0EEFE0F4803F047F8002160
:102D5000030008009847C046B0A2001034A100103C
:102D600044A1001054A100101300800078A10010AD
:102D700048A200102CA10010A89F0010DCA1001098
:102D8000F0A1001018A2001055420000094A83006B
:102D900094464022634410B51C68C0006240C024C1
:102DA00014408022520113431C60034B9C46604434
:102DB000416010BD04C00140004001400A4B80004A
:102DC0009C4604236044002901D00C230821002ADA
:102DD00000D10B00026853400C221A4080235B0193
:102DE000184302607047C04604C00140084B800091
:102DF0009C466044002905D080239B011843402352
:102E000003607047C0239B01184340230360F8E729
:102E100004C001400123D0228340120693629361D3
:102E2000094A83009446402263441968C0004A401E
:102E3000C02111408022520113431960034B9C466C
:102E4000052360444360704704C0014000400140D6
:102E5000024B18688007C00F7047C04600C006408C
:102E6000EFF3108072B6034A1368002BFCD0BFF357
:102E70005F8F70472C0100D0BFF35F8F0022024BA1
:102E80001A6080F3108870472C0100D070B5EFF302
:102E9000108C72B60D4D2B68002BFCD0BFF35F8FEA
:102EA0000724CB08C618C05C01230C40A3401C00BB
:102EB0000440034207D103433370BFF35F8F2C609C
:102EC0008CF3108870BD100001F080FC2C0100D044
:102ED000F8B54746CE46884680B5EFF3108C72B6FB
:102EE000214D2C68002CFCD0BFF35F8F9A422CD868
:102EF000D4080727055D061901241740BC402C4261
:102F00001FD007210127894609E0D408055D06196D
:102F10004C4639001440A1400C00294211D0013226
:102F20009342F2D201204042BFF35F8F00220E4B4A
:102F30001A608CF3108800280FDBC0BCB946B0467D
:102F4000F8BD2C4310003470EEE7BFF35F8F002311
:102F50002B608CF31088012040424346002BECD0BC
:102F6000089801F033FCC0462C0100D00021044B2E
:102F7000044ABFF35F8F02C39342FAD17047C04641
:102F8000000100D0800100D0044A1078431CDBB25D
:102F9000172B00D9102313707047C0464C0F002028
:102FA00000B5054B83B00100009318221F2303488E
:102FB000FFF78EFF03B000BDB4A2001090270020E1
:102FC00001238340002904D0034A1360034A13609D
:102FD0007047034A1360FBE780E200E000E100E095
:102FE00080E100E001228240034B1B6813405A1E1F
:102FF0009341D8B27047C04600E100E0024B103068
:103000009B688000C058704700ED00E070B50D006F
:10301000EFF3108672B60F4A1368002BFCD0BFF393
:103020005F8F0D4B10309B6884001B590B4A9342F5
:1030300003D09D4201D001F0E1FB074B9B681D517D
:10304000BFF35F8FBFF35F8F0022024B1A6086F3DE
:10305000108870BD240100D000ED00E0CD0100100B
:10306000F0B557464E46DE464546E0B585B006000B
:1030700002911700EFF3108B72B6674A1368002BAA
:10308000FCD0BFF35F8F0025644B5D579A46002D3F
:1030900000DAA4E06B00624C03935B199B00984636
:1030A000A146C1444B4652469B79103613705D4B86
:1030B000B2009B68019299580B1B2F2B34D95A4BA5
:1030C000994200D0A4E0039B584A9C46584B654463
:1030D000AD006353434602336519E418554B012193
:1030E000043B1B1B1B055B0D13436B80524BEF71A5
:1030F000AB80FF23AB71029BAB604B460B431900C7
:10310000484B019A9B689950BFF35F8FBFF35F8F65
:103110000022414B1A608BF3108805B0F0BCBB460F
:10312000B246A946A046F0BD01200A008243D379E9
:10313000BB422FD845464E46130040491B1B5B41FE
:103140005943090D3A4B63533A4B02356519043B19
:103150005B1B1B05354D5B0D2B4373800426B4466A
:10316000E0444444131F1B1B4C46A17102991B05EC
:10317000A16049465B0D2B43A380314BE7710143AE
:103180001360BDE75800C01880002018C679BE4201
:103190002BD902000623D356002BF3DA101D8246EA
:1031A0002848804604267642B446E14450464E46BE
:1031B000361A3005400D824656461C489571064326
:1031C0009680039A944665441D4AAD0064192260B6
:1031D0004246A371029BA280E771A36090E701F0D1
:1031E0000DFB002553465D5754E7101D824690881D
:1031F0004005001584464046D444664604302018F5
:10320000301AE0260005400D360230438046C9E7FB
:1032100001F0F4FA57E7C046240100D0442C002006
:10322000500F002000ED00E0CD01001000E0FFFF96
:1032300000A1FFFF800F002001BDFFFFAAAA000030
:103240000148804701BD0000F0B5DE4657464E46B6
:103250004546E0B50C0083B0EFF3108972B6584ACA
:103260001368002BFCD0BFF35F8F564B9A680300A6
:1032700010339F00D559544A9046954232D0A5420A
:1032800043D0524EAA1B2F2A2CD8012282409246AC
:1032900051464F4A12681140019151464D4A116002
:1032A000BFF35F8FEFF305829346002A33D10123EA
:1032B0002A009A4393689C4208D177E04B005B1840
:1032C0009B00F3189968A1422AD01A000621515692
:1032D0000029F3DA019B002B19D052463E4B1A60AD
:1032E0003B4B1A60374B9B68DD51BFF35F8FBFF3D9
:1032F0005F8F0022324B1A6089F3108803B0F0BC54
:10330000BB46B246A946A046F0BD1500EAE75246C4
:10331000304B1A60E6E79342C9D001F06FFAC6E776
:1033200006215956002921DB4A0050188000341824
:103330008046A0689860E079D87106202056987180
:10334000002824DBA488F01A6405241544440019DD
:10335000E0240005400D24022043988052181F4BA2
:103360009200B6181A781970B271B3E7594600295D
:103370000FD1FF3191711A49918018490A789A71D9
:10338000184A9B1B5B415A43120D0A70A2E716486C
:10339000E3E7164A1649D21A083A5002400D014393
:1033A0009980144952080A43DA8093E7062151565E
:1033B00013000029B8DA5A46002AEAD14546DCE76C
:1033C000240100D000ED00E0CD010010500F0020DE
:1033D00000E100E080E100E080E200E0442C002019
:1033E00001BDFFFFAAAA000001BD00008A0F002056
:1033F00000F0FFFF00F8FFFF70B5EFF30581012437
:103400000443EFF3108C72B6214A1368002BFCD0F2
:10341000BFF35F8F1F4B05001F4AED1A6D416A43D2
:10342000120D1E4D8900AE6852B27658A6421CD0CD
:103430000621595691421CD012215956914222D050
:103440001E215956914220D02A21595603249142D7
:1034500010D0134B19781A708171BFF35F8F00225F
:103460000B4B1A608CF3108870BDAB680D4C5C5030
:10347000EFE700246100091989005B18FF219971A9
:1034800009499980E5E70124F4E70224F2E7C04600
:10349000240100D0500F0020AAAA000000ED00E097
:1034A000442C0020CD01001001BDFFFF054B064A52
:1034B0001360064A136053609360D36013615361D5
:1034C000936170478080808000E400E004E400E0C5
:1034D000024B9C4661448900016070474000003403
:1034E00010B50400FFF750FD01002000FFF7F0FFCA
:1034F000FF232371BFF35F8F10BDC04610B50400DA
:10350000FFF742FD01002000FFF7E2FFFF23A38049
:10351000BFF35F8F10BDC04610B504000120FFF758
:103520003FFD044B9C46604480002060BFF35F8FEA
:1035300010BDC0464000003483680B4810B5844677
:1035400061446244090112019A18591854684B6881
:1035500001209C4201D802D00020C0B210BD1268E8
:103560000B689A42F9D8F7E7FFFFFF0F0A4B19687B
:10357000EFF3108072B60A68002AFCD0BFF35F8FA9
:103580001B68BFF35F8F00221A6080F3108840BF72
:10359000002000217047C046282C0020F8B557466F
:1035A0004E464546DE46E0B599460CAB1C780DAB61
:1035B0001B78060090469A460768002C11D1BC7B08
:1035C000002C42D065003B682D19033D59194B78FA
:1035D000BB73002B00D1FB7300238B704B700B70FF
:1035E00004E065003B682D19033D5919B2682A4B68
:1035F00094464246E3181B0163441A604A465A60E7
:103600000A9A9A600B9ADA6000238B704B700B70E9
:103610007B7B9B46002B2BD022005946B8687B68E9
:1036200098473A68002816D05B4658465B005B44D2
:103630005519033BA870D118D35C002B00D06B70D8
:103640005B460C707B73A34513D0F0BCBB46B246FF
:10365000A946A046F8BD5B465B005B44033BD3181C
:103660009C705119525D002A00D05A705B460B7055
:103670007C7342464B46307D00F0A2FB051E06D00F
:103680005346002B03D12100306800F0BDFD0E9B96
:10369000002BDAD01D70D8E7FFFFFF0FF0B5DE4634
:1036A00057464E4645460023E0B58BB00893674B1E
:1036B0008200D45800239B46099000F021FB6268E9
:1036C00006000F00EFF3108572B61368002BFCD0D4
:1036D000BFF35F8F23689C465B7B9946002B00D12C
:1036E00069E0A2685A4B90464B441B0198444346FC
:1036F0001A685B6810001900801BB941002900DCC2
:1037000063E0099800F05CFB002300229846002348
:103710000692079300239A466368BFF35F8F5A4669
:103720001A6085F310885346002B08D10028C4D1B5
:103730000BB0F0BCBB46B246A946A046F0BD089B04
:10374000414618024B461843D047626806000F00F6
:10375000EFF3108572B61368002BFCD0BFF35F8FB8
:10376000002F50DB33003B4302D02369002B61D193
:103770002368D97B002907D04A00521819688C4663
:1037800049466244033A51709A7B002A01D14A4665
:103790009A734A46DA734B46E168013BCA5C0132D0
:1037A000CA545B4623616368BFF35F8F5A461A6051
:1037B00085F3108881E700230022984600230692B3
:1037C0000793002300209A46A6E7002902D100288B
:1037D00000D096E70021604600F094FC43461A684A
:1037E0005B680692079343469B689A464346DB68AC
:1037F0009846E3684B44013B1B7808931B02034344
:103800002361002088E72369002BB1D0069A079B2B
:10381000921BBB41002B15DB5946049101210391FA
:103820004946029141460191514620000091FFF71F
:10383000B5FEB6E700F064FA32003B0012184B41C7
:10384000002BE9DA0122034B5242E5E7142C002059
:10385000FFFFFF0FFFFFFF7F10B5144C6368002BC5
:1038600004D00A211248FFF733FE10BD2300114A8D
:103870001021206800F060FB032000F035FA0320DF
:1038800000F008FB03200C4900F054FAFFF77CFB22
:103890000A4B9C4603232375D0231B061B686044F8
:1038A0006375074B80006060DC60DAE7980F0020EA
:1038B000282C0020393500109D36001040000034BF
:1038C000142C0020F0B54E464546DE465746E0B57E
:1038D00085B0019310AB1B78060003930023994633
:1038E000984600927268EFF3108B72B61368002B43
:1038F000FCD0BFF35F8F3568AC7B002C3DD06700F8
:103900002B683F19033FDB195A78AA73002A00D1AC
:10391000EA73B168474A8C4600980199A2181201CF
:103920006244106051600E9991600F99D1604246D7
:103930009A705A701A706B7B9A46002B67D02200DF
:103940001900A8686B6898472A68002852D0534627
:1039500050465B005344D719033BB870D118D35C71
:10396000002B00D07B7053460C706B7354454FD0C6
:10397000F3681B19013B187800E000207368BFF35F
:103980005F8F42461A608BF31088002C4FD04B4655
:10399000002B08D10002204305B0F0BCBB46B24664
:1039A000A946A046F0BD039B002B3ED00E9B0020F5
:1039B0000F999847030004000D000B4335D00029F0
:1039C0000ADA009A019B121BAB4100920193002B73
:1039D0000ADB039B994685E700F092F924184D41D4
:1039E00000940195002DF4DA0123134C5B420093FF
:1039F0000194EEE753465B005344033BD3189C709D
:103A0000D119D25D002A00D05A7053460B706C73E6
:103A1000307D009A019B00F0D3F981460028A7D0A1
:103A20002100306800F0F0FBA2E70020B4E701209D
:103A30004042B1E7FFFFFF0FFFFFFF7FF0B504003B
:103A40000D0006267642F717C64636196F4100B5B7
:103A500084B08F4214D811D000F052F932003B00EC
:103A6000121A8B41002B15DC002B3ED020002900C0
:103A700000F050F904B080BCB846F0BD8642EBD9E6
:103A80000026002700F03CF932003B00121A8B415F
:103A9000002BE9DD002302930193154B32000093C4
:103AA00014483B00FFF70EFF0028DFDB0023984699
:103AB000BC46114A114F7B6A9C4504D8B96A8E42B4
:103AC000D4D99C45D2D11168EFF3108072B60B683F
:103AD000002BFCD0BFF35F8F1368BFF35F8F4146AD
:103AE000196080F3108820BFE5E7002ABED0D1E737
:103AF0006D350010980F0020282C00200040054054
:103B000070B504000D0000F0FBF8001969410029B0
:103B100002DBFFF793FF70BD012001494042F8E747
:103B2000FFFFFF7F70B5060000F0EAF8FA220400FC
:103B30000D00002330000021920002F0C7FF0019A1
:103B40006941002902DBFFF779FF70BD01200149BF
:103B50004042F8E7FFFFFF7FF0B5EFF30583CE4665
:103B6000474680B505000C0085B0002B12D02C4ACA
:103B70000020536A9C4203D8926A0130AA4204D3BF
:103B800005B0C0BCB946B046F0BDE01A421E904137
:103B9000C0B2F5E7234E02930193234B020000933A
:103BA00030000B00FFF78EFE031EE0DD20BF7168C2
:103BB000EFF3108772B60A68002AFCD0BFF35F8F5C
:103BC000DAB294463068427B62451DD0FF221A402B
:103BD0005100894601689144884649464144033969
:103BE0008978002913D0F1681B0A88464244013ABB
:103BF0001278DBB29A420FD07368BFF35F8F002256
:103C00001A6087F31088B2E7FF221A40EBE73269A7
:103C10009342F1D13161EFE7614600F0F5FAEBE74D
:103C200000400540980F00206D350010F0B5EFF30F
:103C30000582D6464F4646461000C0B51038EFF311
:103C4000108872B6214C2368002BFCD0BFF35F8F25
:103C50000123190081401E4D1F006963AA461D4DB6
:103C600029601D4D2E78AC463500C5402F402B42B3
:103C700009D1BFF35F8F276088F31088E0BCBA4694
:103C8000B146A846F0BD5346144D5F6A83005D59A6
:103C9000AF420ED3124A8E439B5862461670BFF352
:103CA0005F8F0022226088F31088002BE6D09847AF
:103CB000E4E70C4B92009C46624413681360BFF328
:103CC0005F8F0023236088F31088D7E7280100D096
:103CD000004005403C700540452C00202C2C002065
:103CE00080260020D03F054010B50100024A03485D
:103CF000FFF7CCF810BDC046D0A20010422C002027
:103D0000034B596A0A00986A596A8A42FAD1704785
:103D100000400540064A536A9942FCD807D1044B3B
:103D200002E05A6A914202D19A6A8242F9D37047FC
:103D30000040054070B504000D00EFF3108672B628
:103D40001A4A1368002BFCD0BFF35F8F002D1BD0E5
:103D50002000FFF753F9164981420AD02000FFF7EF
:103D600055F901212000FFF72BF90123A340114A47
:103D70001360114BA400E550BFF35F8F00220B4B83
:103D80001A6086F3108870BD0B4BA200D55001223B
:103D9000A2400A4920000B7893430B700449FFF7B7
:103DA00053FA00212000FFF70BF9E5E7280100D0C6
:103DB0002D3C00103860054080260020452C002056
:103DC000F0B54F46D6464646C0B507002C4C616A52
:103DD0000D00A66A616AA942FAD18B4208D805D0C3
:103DE0000120E0BCBA46B146A846F0BDB242F7D9C0
:103DF000EFF3108A72B6234801680029FCD0BFF3A4
:103E00005F8F0125BD4020491D4C884609788946B1
:103E10002943C9B28C46414660460870391D1B488B
:103E2000890065630A51B9000B50216A00202942BC
:103E300019D0616A0800A66A616A8142FAD18B4290
:103E400019D801D1B24216D8CC4516D00C4B1F2040
:103E50001D625D6301230740BB400D4A1E3813609D
:103E600043464A461A70BFF35F8F0022054B1A6023
:103E70008AF31088B5E70020F5E70120F3E7C04694
:103E800000400540280100D0452C00202C2C0020AB
:103E900080E200E0EFF3108C72B60A490B68002B49
:103EA000FCD0BFF35F8F01238340074A07481362AA
:103EB00002789A430270BFF35F8F00230B608CF38C
:103EC00010887047280100D000400540452C002094
:103ED00070B5050014001600002915D00C00002A4A
:103EE00012D080686B689847296800280ED073004C
:103EF0009B196200033B1219CB18033A9C70881877
:103F00008A5C002A15D10670200070BD63001B1961
:103F10007200033B9219CB18033A9E7088188A5C92
:103F2000002A02D104703400EEE75A7004703400A5
:103F3000EAE75A700670E7E730B583600023CCB239
:103F400043730133047342608373C4730D000068CC
:103F5000012C06D9421C0133DBB2137003329C42A0
:103F6000F9D1FF2129404B0059180023401803388C
:103F7000437030BDF8B5CE46474606000C0080B50C
:103F8000002907D04D0003686D18033D5A19577872
:103F9000002F04D12000C0BCB946B046F8BD79005E
:103FA000C919033988464344597889460021597014
:103FB000517073683A002100806898473368002880
:103FC00014D042469A18947059195B5D002B00D0AA
:103FD00053700F70270049463000FFF7CBFF3900C0
:103FE00002003000FFF774FF0400D3E74246414669
:103FF0005D19AF709A185B5C002B00D06B70147069
:10400000E9E7C046F0B557464546DE464E46E0B5C0
:104010000D006B0001685B19DF1E0400C85D83B0F2
:104020000192CA19002850D043001B18033BCB183B
:104030005E78B446002E1AD1019E002E42D0E67B57
:10404000002E04D073009B19CB18033B5D70A37B3B
:10405000002B00D1A573E57300282FD100235370E6
:1040600003B0F0BCBB46B246A946A046F0BD720004
:104070006244033A89184A78904600224A70914671
:104080005A70010032002000FFF722FF43468246AB
:10409000002B07D05B0021684344033BCB185A78C0
:1040A000002A16D1424651462000FFF711FF216831
:1040B000019BCA19002BC2D10028CFD043001B1886
:1040C000033BCB1800219970C8E7019B002BB6D1A8
:1040D000C4E75000801803380918487883464846DA
:1040E0004870587041462000FFF7F2FE594680465E
:1040F0002000FFF73FFF414602002000FFF7E8FEE7
:104100008046CFE7F0B557464546DE464E46E0B519
:1041100083B00191457B04006B0000685B19DF1ED2
:10412000C15DC219002952D04B005B18033BC31874
:104130005E78B446002E1CD1019E002E44D0E67B52
:10414000002E04D073009B19C318033B5D70A37B42
:10415000002B00D1A573E573002931D1002328007D
:104160005370617303B0F0BCBB46B246A946A0468B
:10417000F0BD72006244033A8018427890460022F3
:10418000427091465A7020003200FFF7A1FE43466C
:104190008246002B07D05B0021684344033BCB18C9
:1041A0005A78002A17D1424651462000FFF790FE68
:1041B000019B01002068C219002BC0D10029CDD07D
:1041C0004B005B18033BC31800209870C6E7019BA7
:1041D000002BB4D1C2E75000801803380918487882
:1041E000834648464870587041462000FFF770FEED
:1041F000594680462000FFF7BDFE414602002000E0
:10420000FFF766FE8046CEE770B5040000292CD08B
:10421000437B8B422ED0056848004018033828188D
:104220008278002A21D053009B18033BEA5CEE18E9
:104230008A4202D11BE0002A08D053009B18033B9E
:10424000EB185A788A42F6D142785A70002301223C
:10425000837043702000FFF7D5FE617B02002000D1
:10426000FFF736FE6073012000E0002070BD437848
:104270003370EBE701221900FFF7C4FE60730120E1
:10428000F4E7C04630B50C2083B000F0B9F9FEF772
:10429000DFFD00280ED0994B994A1A605A609A6047
:1042A000DA601A615A619A61DA611A62954A5A6251
:1042B00003B030BD944CA06700F0F6F90122934B97
:1042C0001A60636C012BFCD10322914B1A608E4A59
:1042D000936B012BFCD1013301218E4A8E48009350
:1042E000043300F03DF905238C4A009301218C48EA
:1042F00000F036F98B4B5A68FF2A02D88022520010
:104300005A6080227D4C824B21691201854D1A60D2
:10431000002907D0606901F0BBFD431C5800C0189C
:104320000338FDD2E0217F4B02201A681140802221
:1043300052012A431160196848400321014011606D
:1043400004219A681142FCD08022802192012A43E4
:1043500009011160802252005A60734B2361734B34
:104360005968FF2900D85A600321684A6F4B1160D1
:1043700002399A681142FCD0E0201A68104080226D
:1043800052011A431060186848400321014002207E
:10439000116066498A681042FCD080229201134362
:1043A000802212011A608022614B52004A606361D0
:1043B000604B5968FF2900D85A6080225E4BE16942
:1043C00012015C4D1A60002907D0606901F060FDA0
:1043D000431C5800C0180338FDD2E02255490B6831
:1043E0001A4080235B012B431A60802380229B01AB
:1043F0002B4312011A608022414B52004A60E36154
:104400004E4B5968FF2900D85A6080224C4B216AD4
:1044100012014A4D1A60002907D0606901F038FD89
:10442000431C5800C0180338FDD2E02243490B68F2
:104430001A4080235B012B431A60802380229B015A
:104440002B4312011A60802380225B004B602C4BAF
:10445000D20223623B4B5968914200D25A608022BB
:10446000394B616A1201374D1A60002907D0606923
:1044700001F00EFD431C5800C0180338FDD2E022A5
:1044800030490B681A4080235B012B431A6080235C
:1044900080229B012B4312011A608023DB024B60B8
:1044A000184B6362294B5A68FF2A02D880225200B7
:1044B0005A608022264BA1691201244D1A600029FE
:1044C00007D0606901F0E4FC431C5800C0180338B1
:1044D000FDD2E0221D490B681A4080235B012B436B
:1044E0001A60802380229B012B4312011A608023D3
:1044F0005B004B600E4BA361DAE6C04694270020B8
:10450000006CDC021BB70000008000403CB00040A3
:1045100030B00040002F685900800240008C864770
:1045200000C0024030800040001BB7003C800040CB
:10453000405973075480004054B0004060800040F0
:1045400060B000406C8000406CB00040488000408B
:1045500048B00040014B8000C058704794270020AD
:10456000F8B5040021481D0017000E0001F090FC72
:104570000100380001F08CFC069B29041B03194341
:104580002368002B20DB1A4B1A4DE21853425A4184
:1045900080235B019C461203174B62441A60174B41
:1045A0001A601700AB689F43FBD1C022231D920104
:1045B0001A4321232660A06013602368002BFCDAD5
:1045C0000823E1601360F8BD3F2322681340B34223
:1045D000D9D1A3681B051B0D8342D4D1EE22E36819
:1045E000D20213408B42CED1EDE7C046001BB7008C
:1045F0000040FDBF00C0004000E0004000F000406F
:104600008023024A9B000343D36270470080054029
:1046100010B5140080221B4BD2051A6000281AD056
:104620000123194A1843194BDA61194A42401A62A8
:10463000596298628022134BD2051A601549164AB6
:104640001160E022D2041A60002C07D18022134BA3
:1046500012061A6010BD0D4BD861EBE763011B1BFE
:104660009A008023121912015B049A4200D30C4A6B
:104670000C4B1A60054B5A608022084BD2051A6019
:10468000E8E7C04600B00540D3C007B00080054051
:104690002D3FF84FFCFF01000820014000A005401D
:1046A000FFFFFF000C2C0020AA23064A1B01136009
:1046B0002F230549D360054B19605368002BFCDAA2
:1046C0007047C0460040024000B0FA00006002405F
:1046D0002C4B2D4A70B51A602C4A2D4B2D491A606F
:1046E00014008B689C43FBD12B4D2C4EB54208D255
:1046F000013E761BB60808CD984723000134B3422B
:10470000F9D1FFF7BFFD264A214B1A60214A936871
:10471000DB43DB01DD09002BF9D14022214B224C88
:10472000224E9A675A671A67DA66B44208D223683B
:104730002000002B20D00834FEF7E0FEB442F6D370
:104740001B4E1C4CC022A168300002F0DFFBA660AB
:10475000FEF70CFCFEF7AAFEFFF77EF8164C174E8C
:10476000B44208D2013E361BB60808CC98472B004D
:1047700001359E42F9D170BD0834FEF7B1FEB44256
:10478000D5D3DDE700E00040BFCDFBFEFE7F3C005F
:1047900000F0004000C000404814002058140020E1
:1047A000FFFFFF0100F001403814002048140020F2
:1047B0000000002000ED00E0581400205C140020F0
:1047C00000BEFDE710B5FFF7FBFFC0460FB400B514
:1047D000084883B002F0CCFC049B002B07D005A94D
:1047E0001800019101F0DAFA034802F0C1FC01203F
:1047F000FFF7E6FFF4A2001064A1001010B5014815
:10480000FFF7E4FF04A300109A4200D288547047D7
:104810007047C046F8B557464E464546DE46E0B5B9
:1048200099460A9B07009A460D9B884693461500B9
:104830000B9E9B0710D10C9B9E420DD29D1B14001A
:104840000E005D4422004B46013431002020B84761
:10485000A542F7D1B0460B9E002E27D044467519CD
:104860005346AA1B013E985D21004B46B847002ED7
:10487000F6D123002C0098460D9B9B070FD55B4675
:10488000E51A0C9BAB420AD94646984622004B4695
:10489000310020200135B8470134A845F6D8200062
:1048A000F0BCBB46B246A946A046F8BD2C00E3E7E3
:1048B000F0B54F464646D646C0B584B098460EABD6
:1048C0001B78129F994694460D9C109B119EBA0727
:1048D00025D4002E4BD19C4200D3BFE001223A40A8
:1048E00092461F2C00D9B8E00C9A551E302201E0E8
:1048F000202C03D001342A55A342F9D85246002A6D
:104900000DD0A6420BD9202C44D00C9A551E302233
:1049100001E0202C3ED001342A55B442F9D1FA06E8
:104920004DD57A053FD4002C39D10F9B102B00D1E7
:1049300079E00F9B022B00D18AE030230C9A0124EE
:1049400013704B46002B3FD02D230C9A1355013486
:104950000C9B624600930397434602960194FFF72F
:1049600059FF04B0E0BCBA46B146A846F0BD0122EA
:1049700015003D40AA463A422FD04A46002A02D1AD
:104980000C323A4200D0013E9C42BAD21F2CABD925
:10499000202E27D92024FA06DAD57A0503D4A3429B
:1049A0002DD0A6422BD00F9B102B32D0022B20D023
:1049B000202CCDD030220C9B1B191A700134202CD6
:1049C000C6D04B46002BBFD17B070DD43B07BFD5CC
:1049D00020230C9A13550134BAE79C429FD21F2C16
:1049E00000D881E720249AE72B230C9A1355013431
:1049F000AEE7202CACD00C9B1B1901343AE0631EAF
:104A0000012C92D00F9A102A2AD0022A2FD01C00F3
:104A1000D0E7BB060ED4202C9AD00C9B1A19013477
:104A200078231370C4E7BB060DD478230C9A0124B5
:104A30001370BFE7202C00D18AE758220C9B1B196A
:104A40001A700134B4E758230C9A01241370B1E7AB
:104A50000C9A603301241370ACE7202400265EE733
:104A6000023CBA06E9D40C9A12191C00D8E70C9A39
:104A70009246534462221A709AE7C04610B5002845
:104A800000D110BD02F028FBFBE7C046F0B5DE46C2
:104A900057464E464546E0B59BB09B46249B89460B
:104AA0009846259B0B900C924046424619009A4628
:104AB00001F0B7FC002800D0D8E001224046514662
:104AC000774B524201F0A8FC002800D0CEE0012232
:104AD00040465146734B524201F088FC002800D0FA
:104AE000C4E0002200234046514601F07FFC00282C
:104AF00000D0B9E1424653460A9209938023289A8E
:104B0000DB001A400E92289A1A4201D106232693FE
:104B10000A9A099B1600134300D0C7E0289B002582
:104B200000261B0500D49BE100230D93269A0D9BC4
:104B30009A4200DC9FE1D01A431E26938023289AD4
:104B4000DB001A430023002728920D93279B0024A3
:104B5000BB4200D9DC1B0223289A1A400E92289AE5
:104B6000134203D07B427B415B421C400D9B002BD8
:104B700007D00A9809992A00330001F0D6FB0A9061
:104B80000991002200234046514601F02FFC0028E5
:104B900005D0802000068446099961440991289A2D
:104BA000414B0B9D13400493269B0A9A0293099B49
:104BB00003940092019349465B4628000C9A00F04A
:104BC0008BF90400002F62D0289B220098061F2337
:104BD000C0179843631C984649465B466530A84712
:104BE0000D9B0025DA179C18DB0F9A465440013FB5
:104BF00001E0202D13D00AAA94461F23200063440D
:104C00000A2101355E1901F043F93031317020007D
:104C10000A2101F03DF926000400092EE9D80523F8
:104C20000693002304930A330393534605970B9F7F
:104C3000029312AB009342465B4649463800019509
:104C4000FFF736FE0E9B0400002B20D00C9BC51AEC
:104C5000279BAB421BD91E0022005B464946202001
:104C60000135B8470134AE42F6D810E0289B4246E1
:104C70000493279B49460393269B0B980293534624
:104C8000009201935B460C9A00F026F90400200084
:104C90001BB0F0BCBB46B246A946A046F0BDC0461C
:104CA000FFFFEF7FFFFFEFFFFFF7FFFF734B099F52
:104CB0009C467800400D604401F0C6FB704A714B81
:104CC00001F051FB704A714B01F026FB3B03704A27
:104CD0001B0B1A4304000D00300011006D4B002225
:104CE00001F011FB6C4A6D4B01F03DFB02000B0023
:104CF0002000290001F010FB01F0BEFB0D9001F037
:104D0000A3FB674A674B04000D0001F02CFB002257
:104D1000654B01F001FB01F0AFFB644A0600644BF8
:104D20002000290001F01FFB040030000D000F9649
:104D300001F08AFB5F4A604B01F015FB02000B009B
:104D40002000290001F0DFFA02000B0006000F002E
:104D500001F009FB320004000D003B003000390077
:104D600001F0DAFA002210901191544B2000290032
:104D700001F0DBFA0022524B01F0CEFA02000B00E8
:104D80002000290001F0D1FA00224E4B01F0C4FAB4
:104D900002000B002000290001F0C7FA0D0080215D
:104DA000040032003B000020C90501F0ACFA02000B
:104DB0000B002000290001F0AFFA02000B00109850
:104DC000119901F0B2FA0022314B01F0A5FA3E4BE5
:104DD0000F9C9C4664440022230501F0C4FA0500A0
:104DE0000E0002000B000A98099901F0FFFA002852
:104DF0000AD00D9B2800013B31000D930022304B5F
:104E000001F093FA05000E00C6270D992B006331BF
:104E10008F42BF4128997F420437090500D495E6A7
:104E2000334300D182E6099C284A2100284B0A9886
:104E300001F0EAFA002808D000222100254B0A9848
:104E400001F0D4FA002800D070E6269B002B00D198
:104E50007CE60E9B5A1E9341269AD31A269375E63A
:104E6000002304270D9371E643460A9380231B0613
:104E70005344099342E6002326935FE601FCFFFFBB
:104E8000FB799F501344D33FB3C8608B288AC63F39
:104E90000000F03F0000F83F61436F63A787D23FF7
:104EA00071A379094F930A400000E03F1655B5BB46
:104EB000B16B0240EF39FAFE422EE63F00002C4073
:104EC0000000244000001840FF0300002D431CEBAD
:104ED000E2361A3F80842E41F0B54E46DE465746F4
:104EE0004546E0B597B09946209E219F229B834678
:104EF000984607910C923B0032003000390001F0D7
:104F000090FA002800D0A9E1012230003900CA4BF4
:104F1000524201F06BFA002800D0E1E0012230009B
:104F20003900C64B524201F077FA002800D0B7E0B2
:104F3000002230003900C24B01F06EFA002800D088
:104F400099E0002230003900BE4B01F04FFA0028F2
:104F500000D090E0002200233000390001F046FA32
:104F6000002800D0B1E000230D93249B5B0501D401
:104F70000623984608AB9C4617220024302341465E
:104F8000624404E0013413550139202C01D0092971
:104F9000F8D888463000390001F06EFA4346DA004E
:104FA000A94B05009B181A685B680892099301F0E9
:104FB0004BFA02000B003000390001F0A4F9089A06
:104FC000099B01F0D0F90A900B9101F079FA824621
:104FD00001F036FA02000B000A980B9901F093F9E0
:104FE00000229A4B0A900B9101F016FA002800D18A
:104FF000C0E001239C46E244504601F021FA020041
:105000000B000898099901F0F7F9002802D0002355
:105010009A4601354346002B6AD008AB17269C46BA
:1050200008956644554614E001235B4243440A2137
:1050300028009A4600F02CFF0134303137193970BE
:1050400028000A2100F024FF092D00D8D0E0D04626
:105050000500202CE8D10EAB98460323249A134078
:10506000012B00D196E02023249A01930392239AE6
:10507000434602921EE0249B58460493239B0096CD
:105080000197039343460C9A029307994B46FFF707
:10509000FDFC17B0F0BCBB46B246A946A046F0BD29
:1050A000249B5B070ED40322694B24990192039140
:1050B00023990291009358464B460C9A0799FFF7A3
:1050C000A9FBE6E70422634BEFE73B003200002038
:1050D000002101F018F9012306000F000D9344E7A9
:1050E000249B0393239B0293042301935A4BE1E7F0
:1050F000280001F0A9F902000B003000390001F08E
:1051000002F9524B002206000F0001F06FF90EABBE
:10511000984600280AD10022300039004B4B01F09C
:105120007BF9002802D1EB0700D50135202C94D063
:1051300008AA94461723280063440A2101341E1943
:1051400000F07EFE3031280031700A2100F078FE38
:10515000051EEBD10323249A1340012B1BD0202CD6
:1051600000D180E70D9B002B35D02D224146631CDA
:105170000A5579E700220A980B99344B01F036F969
:10518000002800D046E75346002B51D101239C460E
:10519000E2443FE72024239B002BE0D00D9B002B13
:1051A00003D1249A0C33134202D0239B013B239357
:1051B000239BA342D3D908AB9C46172230236244D9
:1051C000202C00D14FE72399013413558C42C6D0CF
:1051D000202CF8D147E7249B5B0724D4249A230092
:1051E000120700D440E72022414601330A553BE72D
:1051F0005746089D202C00D12DE722003021404643
:10520000002F09D00132B154202A00D123E7D34323
:105210001B191B18002BF5D10EAB98462E234146C7
:10522000541C8B5482E72B224146631C0A551BE712
:10523000DB0700D4EEE6A9E7FFFFEFFFFFFFEF7FFC
:1052400065CDCD4165CDCDC108A500100000E03F82
:1052500010A3001014A3001020A30010249B03939C
:10526000239B029303230193004B23E71CA300100D
:10527000F0B5DE464E4657464546E0B59FB01C00A9
:10528000289B91460993C94AC94B8B4608901A60DE
:10529000002900D118E2002320789A46002800D186
:1052A0001AE226001D005C460AE02A006F1C4B46ED
:1052B000089D2100A8473D0001363078002870D0B5
:1052C0002528F2D110239B46083B9A46043B98467A
:1052D000023B00219C46721C107816000300203B04
:1052E000DBB2102B03D8B34F9B00FB589F46030043
:1052F000303B092B32D900230A932A2868D0002397
:1053000098462E283ED00300683BDBB2122B1CD8F7
:10531000A94A9B00D3589F46012301321943DBE77A
:10532000634601321943D7E7434601321943D3E7B5
:105330005B4601321943CFE7534601321943CBE7AD
:1053400080235B007078194301360300253BDBB2F4
:10535000532BAAD8994A9B00D3589F460027030095
:10536000B800C01901364000C018337830381A0030
:10537000303A0700092AF3D90A901800002398460A
:105380002E28C0D180237078DB0019430300303B06
:10539000721C092B00D8A1E12A2800D1B2E1160025
:1053A000B1E7A346AA462C00D14503D801235B42AE
:1053B0004B449A464B46524659460020089DA84702
:1053C00020001FB0F0BCBB46B246A946A046F0BDC7
:1053D000099B40CB0A96002E03DB50780993561C9C
:1053E0008DE72838014370420A9009935078561C83
:1053F00085E7782800D1DFE1582800D14CE26F28FA
:1054000000D14FE3622801D100F030FC10230A00E4
:105410009A430B92692801D000F0A9FC0A230C934F
:105420004B0500D5D0E10B9A802311009B00194059
:105430008B461A4200D0A1E2802311005B00194084
:105440008A461A4200D0B6E313005B0600D5EDE2AF
:10545000130009991B0601D400F076FC08C91BB2A1
:10546000D8171A18424092B209919346DA0F129255
:10547000002B09D1802310220B99DB000B409143B4
:105480000B91002B00D0E4E20B9A6123920600D529
:1054900041230EA91F228C46DBB262440A3B5F46C1
:1054A0001395A34655460C9CB2460D9316000AE090
:1054B0003033DBB201357355A74200D2EDE2202D27
:1054C00000D1EAE207002100380000F0E1FCCBB295
:1054D0000929EDD90D9A94466344DBB2EAE78023AB
:1054E0009B007078194301362FE77078682800D147
:1054F000CDE180230136194327E770786C2800D16D
:10550000BFE180235B00194301361EE7462800D126
:105510009BE10722099B0491073393430A9A1900E0
:105520000392424602920CC9089800920193099195
:105530002A004B462100FFF7CFFC01360500BCE6F0
:105540002A006F1C4B46089D21002520A8470136E4
:105550003D00B2E68B0700D4ADE1099B2A009A46D4
:105560006B1C9846534601CB21009A46089F4B4638
:10557000C0B2B8470A9B9C466544012B00D886E21E
:10558000089B4746B04626004C4699463A00230001
:10559000013731002020C847AF42F7D1A14653461A
:1055A000340046460993013687E6C0467152001022
:1055B000082C002028A300106CA30010B8A3001032
:1055C000099B04CB9B4643460992002B00D1C6E0C1
:1055D00013789C46002B00D1BDE34346013B099A5A
:1055E0000133D0180A9F130001E0834203D05A7898
:1055F0000133002AF9D1099A0A979B1A0B93802349
:105600000A00DB001A400C92194204D00B9B434560
:1056100001D943460B9302231A000A400D920B4214
:1056200000D187E16046002800D168E10C9B002B87
:1056300000D10DE1A844C246099B57465B1B984622
:10564000089BB2462A0026004C46994609E02300F2
:105650003100551CC8474346585D002800D126E15B
:105660002A009742F3D1A1463D00340056460D9BD7
:10567000002B00D043E15B46013609931DE6099BF0
:105680001A0008CA9246002B48D0212211438B46AB
:105690000EA884461F216144099500220F27A446C5
:1056A0000D0002E0202A0CD00B003C001C40200022
:1056B0003730092C00D807380132A85419090F2BAC
:1056C000F0D86446099D32E0DC4B20780893002333
:1056D0009A46002800D0E4E5002465E6434606002B
:1056E0000A9F9800C0180132400080191678030004
:1056F00030003038303B0928F3D930009846160086
:105700000A9700E6099B023604CB9046D2434046F6
:10571000D2171040804609933078F4E51022080033
:10572000904311321043834600224905B0D55B46B1
:105730000693082305934346049310230393002301
:10574000029316AB019200932A004B462100089861
:10575000FFF7AEF85346050001360993ADE513781F
:105760009C46002B00D1F7E202235B4237E720235F
:1057700002009A43472A04D180231B0119430223C4
:105780009843452801D1202319430722099B0491FE
:10579000073393430A9A19000392424602920CC9B6
:1057A00008980092019309912A004B462100FFF7C7
:1057B0006DF90136050080E510230C930C230A00D7
:1057C0009A430B924B0503D501230B9A9A430B92F4
:1057D000692800D127E6642800D124E60B9A8023AB
:1057E00011009B0019408B461A4200D066E18023CD
:1057F00011005B0019408A461A4200D039E21300BA
:105800005B0600D53CE113001B0600D4A6E2099B11
:1058100004CB1204120C934609935B46002B00D074
:105820009AE10B9A1033110099430B91520500D461
:1058300092E100239A460B9B06930A9B05934346ED
:1058400004930C9B039300230CE12023194360E68F
:10585000099B0A9A5B1B98464B4691461F00B2462D
:105860002600089C2A003B003100A0474346013532
:10587000585D0028F6D14A463400B94656460A9289
:10588000F5E6C0239B00B078194302365DE5C023DE
:10589000B0781943023658E50C230A009A431433B2
:1058A0001A43103B0B920C934B058DD496E7A146FF
:1058B00034005646DBE60A9A012A00D853E26B1EF2
:1058C0009F18089BB04626004C4699462A002300A4
:1058D000013531002020C847BD42F7D1A146340030
:1058E0004646099B3A0001CB210098467D1C4B4659
:1058F000089FC0B2B847434601360993DDE40B9BCD
:105900000A9AA8469A4200D8B5E694466544ED1A2C
:10591000089B4746B04626004C4699463A0023006D
:10592000013731002020C847AF42F7D1A1463400EB
:105930004646A0E60B9A0A99531C914200D814E2FD
:105940004B199B1A1F00089BB24626004C469946ED
:105950002A002300013531002020C847BD42F7D17D
:105960000A9BA14601330B93099B34001B785646D2
:105970009C466046002800D058E67CE60722099B3A
:1059800007339343013294469C4462465F68099210
:105990001A68FB1710931193109811990300534044
:1059A0000E930B007B400F9394460E9A0F9B121A96
:1059B0008B410E920F93FB0F6246129300233A43E2
:1059C0009B463DD00B9A6123920600D541230022CD
:1059D000DBB20EA90A3B8C4692460D9343461F321A
:1059E00062441395159655460E9E0F9FA24690460B
:1059F0000C9C14930CE03032D2B2434601355A5518
:105A0000BB4500D18AE1202D00D18AE106000F00BC
:105A1000220000233000390000F078FAD2B2092ABF
:105A2000E9D90D9B9C466244D2B2E6E7FF2309996F
:105A300004C913401A00099117E5C0461148001027
:105A40000B9A1033110099430B915205BAD50023DC
:105A50009A460B9B06930A9B0593434604930C9B23
:105A60000393129B02935346019316AB2A000093B3
:105A700021004B460898FEF71BFF013605001CE489
:105A8000FF22099B02CB11408B460993C5E6534682
:105A9000454609930136FFF710FC56465C46AA4678
:105AA000139DD6E708230C930B910B99642800D023
:105AB00084E60B9B5B0500D586E6B4E40722099BD0
:105AC00007339343013294469C44624609921A6814
:105AD0005B6810009B4613005A46134307D10B9A8C
